:020000040800F2
:1000000098060020A9010008B1010008B30100080A
:10001000B5010008B7010008B901000800000000A0
:10002000000000000000000000000000BB0100080C
:10003000BD01000800000000BF010008C101000868
:10004000C3010008C3010008C3010008C301000880
:10005000C3010008C3010008C3010008C301000870
:10006000C3010008C3010008C3010008C301000860
:10007000C3010008C3010008C3010008C301000850
:10008000C3010008C3010008C3010008C301000840
:10009000B10B0008C3010008C3010008C301000838
:1000A000C3010008C3010008C3010008C301000820
:1000B000C3010008C3010008C3010008C301000810
:1000C000C3010008C3010008C3010008C301000800
:1000D000C3010008C3010008C3010008C3010008F0
:1000E000C3010008C3010008C301000800F002F8C2
:1000F00000F03AF80AA090E8000C82448344AAF188
:100100000107DA4501D100F02FF8AFF2090EBAE885
:100110000F0013F0010F18BFFB1A43F0010318473B
:100120008C120000AC120000103A24BF78C878C1CD
:10013000FAD8520724BF30C830C144BF04680C60ED
:10014000704700000023002400250026103A28BF35
:1001500078C1FBD8520728BF30C148BF0B60704739
:100160001FB51FBD10B510BD00F041F81146FFF7D7
:10017000F7FF00F05DFE00F05FF803B4FFF7F2FF59
:1001800003BC00F063F80000EFF30980704780F3D0
:1001900009887047EFF30880704780F3088870473C
:1001A00040BA7047C0BA70470948804709480047BD
:1001B000FEE7FEE7FEE7FEE7FEE7FEE7FEE7FEE717
:1001C000FEE7FEE704480549054A064B7047000074
:1001D000510B0008ED000008980000209806002050
:1001E00098020020980200207047704770477546BB
:1001F00000F028F8AE4605006946534620F0070097
:10020000854618B020B5FFF7DDFFBDE820404FF070
:1002100000064FF000074FF000084FF0000B21F0F0
:100220000701AC46ACE8C009ACE8C009ACE8C009BD
:10023000ACE8C0098D4670470446AFF30080204605
:10024000FFF79BFF00487047380000200149182045
:10025000ABBEFEE726000200704700001CB5054655
:1002600000F0B0FC4448806940F0100042498861C9
:100270004020ADF8000010208DF8030002208DF81A
:10028000020069463D4800F0F3FA01203C4908703D
:1002900024E04FF41D703B490860012008710220E2
:1002A0004871084600F0FCF93448806810F0400FAF
:1002B00004D04FF480003149086102E040202F490A
:1002C000086131484FF0E02148610020886100BF9B
:1002D0004FF0E020006910F4803FF9D02848007802
:1002E0000028D6D14FF480002449086100F0B4FA08
:1002F00026480168264800F075FDA8B12349086822
:10030000C11700EB5151C1F3C72420490868C11738
:1003100000EB5151C912B0EBC12101D0601CC4B235
:1003200021461B4800F024FA40F27220154908606B
:1003300002200871487167211248817100F0B0F9FC
:1003400000BF144800780028FBD0A3200190124879
:100350002918022201A800F047FA0B484FF0E021CB
:1003600048610020886100BF4FF0E020006910F470
:10037000803FF9D000F068FB0010024000100140FF
:100380000000002010000020809698000800002047
:1003900000280008040000200020000810B565486F
:1003A000807808287ED2DFE800F0042526AEBBBBAB
:1003B000BBAF002060490860604908605D48007973
:1003C00008605C484079096841EA00205B490860A0
:1003D00058488079096841EA004058490860554802
:1003E000C079096841EA0060544908600020544916
:1003F000087096E095E0514800684F490968401A36
:1004000008282FD34C4800684E4A811808224948D2
:10041000001D00F0E9F948480068083046490860C6
:1004200040F2722048490860022008714871672133
:100430004548817100F034F93F480068F021B0FB75
:10044000F1F201FB120020BB4048806810F0400F21
:1004500004D04FF480003D4908611AE040203B4938
:10046000086116E035480068334B1B68C21A3248F1
:100470000068344BC1182F48001D00F0B5F92F4813
:1004800000682D490968401A2B49096808442A491F
:1004900008602A48006828490968884232D12748FC
:1004A000006800E03CE0011F264800F0A9FC04467B
:1004B000224800682349084450F8040CA0420FD198
:1004C00040F27220204908600220087148716321BF
:1004D0001D48817100F0E4F801201D49087011E009
:1004E0001C48006940F080001A49086140F27220FF
:1004F0001549086002200871487165211248817110
:1005000000F0CEF80DE00CE04FF422700E490860C8
:100510000120087102204871084600F0C1F800E08F
:1005200000BF00BF0C48006840F002000A490860A4
:1005300010BD0000200000200C000020080000205A
:1005400000000020002800081000002000100140DA
:100550000400002000200240146400404D4901EBDB
:100560000011096801F0020102295AD0494901EB42
:100570000011896800EB4002474B03EB82021171C6
:10058000444901EB001189680A0A00EB400103EBC2
:1005900081014A713F4901EB001189680A0C00EBA7
:1005A000400103EB81018A713A4901EB001189682E
:1005B000090E00EB400203EB8202D171354901EBD9
:1005C0000011C968CAB200EB400103EB81010A7255
:1005D000304901EB0011C9680A0A00EB400103EB46
:1005E00081014A722B4901EB0011C9680A0C00EB2A
:1005F000400103EB81018A72264901EB0011C968B1
:10060000090E00EB400203EB8202D172214901EB9B
:100610000011496801F00F0100EB400203EB820278
:10062000D1701C4901EB0011096840F2FF7202EA27
:10063000515100EB4002184B23F82210154901EBF1
:1006400000114968090A00EB400203EB8202917035
:1006500030B11249096821F01001104A116005E01B
:100660000E49096821F002010C4A116040B10B49A2
:10067000091F096841F02001084A121F116007E0B4
:1006800006490839096841F02001044A083A116016
:1006900070470000B0650040200000201464004056
:1006A00010B5024600233048006800F08060B0F1C9
:1006B000806F01D1002113E02B48006800F000603A
:1006C000B0F1006F01D101210AE02748006800F075
:1006D0008050B0F1805F01D1022101E0022010BD05
:1006E00010884405214800EB011004601F4800EB0E
:1006F0000110406820F00F041C4800EB011044601A
:100700001A4800EB0110406814792043174C04EBA1
:1007100001146060107A0406D07944EA00449079AC
:1007200044EA0020547940EA0403104800EB011029
:100730008360107B0406D07A44EA0044907A44EA4D
:100740000020547A40EA0403084800EB0110C3601B
:10075000064800EB0110006840F00104034800EB7C
:10076000011004600020BAE7086400408065004082
:1007700010B5024600BF1B4BDB6813F0010FFAD126
:10078000184BDB6813F0200F02D02023154CE360D8
:10079000144B1B6943F48053124C236123461B699D
:1007A00043F002032361002013E002EBC0230D4C51
:1007B000636123461B6943F04003236100BF094B7B
:1007C000DB6803F02003202BF9D1064CE360431CC7
:1007D000D8B28842E9DB034B1B6923F00203014CCA
:1007E000236110BD0020024030B5034600BF194C04
:1007F000E46814F0010FFAD1164CE46814F0200FED
:1008000002D02024134DEC60124C246944F480542F
:10081000104D2C612C46246944F001042C61002009
:100820000DE033F8104021F8104000BF094CE46897
:1008300004F02004202CF9D1064DEC60401CB0EBF4
:10084000520FEED3034C246924F00104014D2C61B6
:1008500030BD0000002002400248034948600348C0
:10086000486070472301674500200240AB89EFCD07
:100870002DE9F05F05460C464FF00009CA460026F8
:100880000027B046B3465948854211D058488542A2
:100890000ED0584885420BD05748854208D057485B
:1008A000854205D05648854202D05648854200D13F
:1008B00003E0B22154A000F082F9E078A0B1E07822
:1008C000042811D0E07828280ED0E07848280BD0F2
:1008D000E078142808D0E078102805D0E0781C28AB
:1008E00002D0E078182800D103E0B32146A000F040
:1008F00066F9002010B9208800B103E0B42142A0BD
:1009000000F05DF9E07800F00F09E07810F0100FCA
:1009100010D0A078012805D0A078022802D0A078B5
:10092000032800D103E0BB2137A000F048F9A078EC
:1009300040EA0909207838B3D5F8008000261FE086
:10094000012000FA06F7208800EA070ABA4516D106
:10095000B7000F2000FA07FB28EA0B0809FA07F096
:1009600040EA0808E078282803D10120B0406861F7
:1009700005E0E078482802D10120B0402861761CCB
:10098000082EDDD3C5F800802088FF282BDDD5F8A0
:100990000480002623E006F10800012101FA00F797
:1009A000208800EA070ABA4518D1B7000F2000FADC
:1009B00007FB28EA0B0809FA07F040EA0808E07884
:1009C000282803D106F1080081406961E0784828B1
:1009D00004D106F10800012181402961761C082E0E
:1009E000D9D3C5F80480BDE8F09F0000000801409D
:1009F000000C0140001001400014014000180140AB
:100A0000001C0140002001402E2E5C4C6962726186
:100A1000726965735C53544D3332463130785F539D
:100A200074645065726970685F4472697665725C5F
:100A30007372635C73746D3332663130785F6770E4
:100A4000696F2E63000000000648006800F4E06053
:100A500005490843001D03490860BFF3408F00BFEC
:100A6000FEE700000CED00E00000FA0510B500F014
:100A700001F810BD0CB500200190009032480068CC
:100A800040F480303049086000BF2F48006800F40F
:100A9000003000900198401C0190009818B901980E
:100AA000B0F5A06FF1D12848006810F4003F02D0E3
:100AB0000120009001E0002000900098012842D120
:100AC0002248006840F0100020490860084600688D
:100AD00020F0030008600846006840F0020008604B
:100AE0001948406818494860084640684860084608
:100AF000406840F4806048600846406820F47C10FC
:100B000048600846406840F4E810486008460068BD
:100B100040F08070086000BF0B48006810F0007F54
:100B2000FAD00948406820F00300074948600846A9
:100B3000406840F00200486000BF0348406800F091
:100B40000C000828F9D10CBD001002400020024022
:100B500010B51348006840F00100114908600846CC
:100B60004068104908400E494860084600680E4930
:100B700008400B4908600846006820F4802008609F
:100B80000846406820F4FE0048604FF41F0088606B
:100B9000FFF76CFF4FF000600449086010BD0000D3
:100BA000001002400000FFF8FFFFF6FE08ED00E035
:100BB00010B50020FFF7D2FCFFF7F0FB10BD00BF1F
:100BC000FEE7000038B57748C06940F0007075490D
:100BD000C8610846806940F00500886118208DF8DA
:100BE000030002208DF80200C002ADF80000694643
:100BF0006D48FFF73DFE48208DF803004FF400607C
:100C0000ADF8000069466848FFF732FE67480068A3
:100C100040F020006549086014200121002807DA0F
:100C20000A07140E624A00F00F031B1FD45403E09E
:100C30000A07130E5F4A135400BF5C48103800685F
:100C400020F002005949103908600846006840F059
:100C50000100086000BF55480C38006810F0010F13
:100C6000F9D052481038006840F480304F491039AC
:100C700008600846006840F04000086008460068C8
:100C800020F0800008600846006820F0200008601E
:100C90000846006820F0100008600846006820F050
:100CA000080008600846006820F0040008603F481B
:100CB0000C30006820F080403C490C310860084648
:100CC000006820F0004008600846006840F0170007
:100CD00008600846006840F08070086008460068B8
:100CE00020F4702008600846006840F4E0200860A6
:100CF0000846006820F4E00008600846006840F4F8
:100D0000001008602C48006840F003002A49086081
:100D100029480830006820F003002749083108609E
:100D200025481030006820F0030023491031086086
:100D3000224821493C31086021492248016022496A
:100D400000F104000160214900F104000160204825
:100D5000006840F003001E4908601E48006820F04B
:100D600001001C4908601C48006840F002001A4954
:100D700008601A48006820F001001849086000BFA8
:100D80001748006810F0010FFAD1142001218140AA
:100D900042094FF0E02303EB8202C2F8001100BFCA
:100DA00038BD0000001002400008014010640040FF
:100DB00018ED00E000E400E004660040206E306EB4
:100DC000606E706E44660040E010F010001110116B
:100DD0001C6600400066004014640040006400404F
:100DE0000464004002460B46002104E0091D9942BC
:100DF00001D3002070475058401CF7D00120F9E77C
:100E000010B502460B464FF0FF3108E012F8010B17
:100E10004840C0B2054C54F8200080EA1121180067
:100E2000A3F10103F2D1C84310BD0000AC0F0008CC
:100E30001CB55748806940F0040055498861482036
:100E40008DF803000420ADF8000002208DF80200A8
:100E500069465048FFF70CFD4FF0E020006920F094
:100E600004004FF0E02108610846006940F00100ED
:100E700008614948486100250CE0A81C85B2B5F519
:100E8000006F07DB0025FFF7E7FC01214348FFF770
:100E90006FFC05E04148285AA0F57F41FF39ECD1AD
:100EA00000BF00204FF0E02188613A480830006818
:100EB00010F0040F0FD100BF4FF0E020006910F4D4
:100EC000803FF9D033480830006810F0040F02D199
:100ED0002846FFF7C3F91DB930480088019004E0A7
:100EE0002E48284430F8020C0190BDF80400A728D1
:100EF00026D12B48C4692146FFF782FF06462848C1
:100F00002058B04242D1FFF7A7FC201DC0F3C727ED
:100F10004005400D01D0781CC7B239462148FFF783
:100F200027FC221D1F491E48FFF75EFCA3200190ED
:100F30001A482918022201A8FFF756FCFFF784FD82
:100F4000BDF80400A3281ED116481C3004683CB12B
:100F5000B4F5002F04D221461248FFF751FF064690
:100F600010482058B0420BD10E480F490860001DB0
:100F7000D0F80080011F0868FFF70FF9C04705E0AF
:100F80002846FFF76BF92846FFF768F900BFFEE730
:100F90000010024000080140C0E1E4000020000809
:100FA000000004080028000808ED00E00000000030
:100FB000963007772C610EEEBA51099919C46D0766
:100FC0008FF46A7035A563E9A395649E3288DB0EC1
:100FD000A4B8DC791EE9D5E088D9D2972B4CB609A4
:100FE000BD7CB17E072DB8E7911DBF906410B71D81
:100FF000F220B06A4871B9F3DE41BE847DD4DA1ABA
:10100000EBE4DD6D51B5D4F4C785D38356986C13EA
:10101000C0A86B647AF962FDECC9658A4F5C011463
:10102000D96C0663633D0FFAF50D088DC8206E3B41
:101030005E10694CE44160D5727167A2D1E4033C53
:1010400047D4044BFD850DD26BB50AA5FAA8B5357A
:101050006C98B242D6C9BBDB40F9BCACE36CD83269
:10106000755CDF45CF0DD6DC593DD1ABAC30D92610
:101070003A00DE518051D7C81661D0BFB5F4B42113
:1010800023C4B3569995BACF0FA5BDB89EB8022810
:101090000888055FB2D90CC624E90BB1877C6F2F95
:1010A000114C6858AB1D61C13D2D66B69041DC7690
:1010B0000671DB01BC20D2982A10D5EF8985B17169
:1010C0001FB5B606A5E4BF9F33D4B8E8A2C9077818
:1010D00034F9000F8EA8099618980EE1BB0D6A7FAF
:1010E0002D3D6D08976C6491015C63E6F4516B6B68
:1010F00062616C1CD83065854E0062F2ED95066C1D
:101100007BA5011BC1F4088257C40FF5C6D9B06591
:1011100050E9B712EAB8BE8B7C88B9FCDF1DDD62EE
:10112000492DDA15F37CD38C654CD4FB5861B24D54
:10113000CE51B53A7400BCA3E230BBD441A5DF4A1E
:10114000D795D83D6DC4D1A4FBF4D6D36AE96943E1
:10115000FCD96E34468867ADD0B860DA732D04448C
:10116000E51D03335F4C0AAAC97C0DDD3C710550B7
:10117000AA41022710100BBE86200CC925B568575E
:10118000B3856F2009D466B99FE461CE0EF9DE5EA7
:1011900098C9D9292298D0B0B4A8D7C7173DB35958
:1011A000810DB42E3B5CBDB7AD6CBAC02083B8EDE9
:1011B000B6B3BF9A0CE2B6039AD2B1743947D5EAF6
:1011C000AF77D29D1526DB048316DC73120B63E325
:1011D000843B64943E6A6D0DA85A6A7A0BCF0EE484
:1011E0009DFF099327AE000AB19E077D44930FF03F
:1011F000D2A3088768F2011EFEC206695D5762F736
:10120000CB67658071366C19E7066B6E761BD4FE72
:10121000E02BD3895A7ADA10CC4ADD676FDFB9F94F
:10122000F9EFBE8E43BEB717D58EB060E8A3D6D611
:101230007E93D1A1C4C2D83852F2DF4FF167BBD13F
:101240006757BCA6DD06B53F4B36B248DA2B0DD842
:101250004C1B0AAFF64A0336607A0441C3EF60DFE5
:1012600055DF67A8EF8E6E3179BE69468CB361CBCE
:101270001A8366BCA0D26F2536E2685295770CCCF3
:1012800003470BBBB91602222F260555BE3BBAC534
:10129000280BBDB2925AB42B046AB35CA7FFD7C225
:1012A00031CFD0B58B9ED92C1DAEDE5BB0C2649B16
:1012B00026F263EC9CA36A750A936D02A906099C49
:1012C0003F360EEB8567077213570005824ABF95BC
:1012D000147AB8E2AE2BB17B381BB60C9B8ED2923F
:1012E0000DBED5E5B7EFDC7C21DFDB0BD4D2D38696
:1012F00042E2D4F1F8B3DD686E83DA1FCD16BE8109
:101300005B26B9F6E177B06F7747B718E65A0888D9
:10131000706A0FFFCA3B06665C0B0111FF9E658F6A
:1013200069AE62F8D3FF6B6145CF6C1678E20AA014
:10133000EED20DD75483044EC2B30339612667A79A
:10134000F71660D04D476949DB776E3E4A6AD1AEE9
:10135000DC5AD6D9660BDF40F03BD83753AEBCA978
:10136000C59EBBDE7FCFB247E9FFB5301CF2BDBDE5
:101370008AC2BACA3093B353A6A3B4240536D0BAEE
:101380009306D7CD2957DE54BF67D9232E7A66B38B
:10139000B84A61C4021B685D942B6F2A37BE0BB438
:1013A000A18E0CC31BDF055A8DEF022DCC13000854
:1013B000000000201000000028010008DC130008D5
:1013C0001000002088060000440100080000000012
:0C13D00000000000000000000000000011
:04000005080000ED02
:00000001FF
